:100050001091B801112309F01FEF1F931091B70100
:10006000112309F01FEF0F91102359F010E01093A6
:10007000B8015F9A14E00E94641A5F9810E0109330
:100080009B0170918201112700919B01071720F4B9
:10009000039500939B011FEF109519F110E0109349
:1000A0009B0110919D01112309F01FEF10951093F2
:1000B0009D011FEF109383011091B701112309F0E7
:1000C0001FEF112371F05F9A10919D01112309F028
:1000D0001FEF112311F013E001C012E00E94641A17
:1000E0005F98112700919A017BE4071720F403958C
:1000F00000939A011FEF109569F010919E01112352
:1001000009F01FEF109510939E0110E010939A01D3
:100110001FEFF12E10E0109390014A9B10C01127A1
:100120000091840170E0701720F40A950093840117
:100130001FEF1095B9F010E01093880113C011273C
:10014000009184017FE0071720F403950093840158
:100150001FEF109539F01FEF10938C011093880159
:10016000109390014B9B10C011270091850170E006
:10017000701720F40A95009385011FEF1095B9F0D0
:1001800010E01093890113C01127009185017FE0D1
:10019000071720F40395009385011FEF109539F0A0
:1001A0001FEF10938D011093890110939001189BFC
:1001B00010C011270091860170E0701720F40A9595
:1001C000009386011FEF1095B9F010E010938A019B
:1001D00013C01127009186017FE0071720F40395D3
:1001E000009386011FEF109539F01FEF10938E01D9
:1001F00010938A0110939001199B10C01127009150
:10020000870170E0701720F40A95009387011FEFB3
:100210001095B9F010E010938B0113C011270091D5
:1002200087017FE0071720F40395009387011FEFF4
:10023000109539F01FEF10938F0110938B011093DD
:1002400090011FEFE12E08951FEF1093A201089572
:100250001FEF1093A10108951FEF1093A0010895BF
:10026000239710E000E01A8309831B81103001F10D
:1002700010E018831B8111501A931981088101170E
:10028000B0F00A811B8103591E4F1B830A83198119
:1002900004E00E942A1D003029F4AA81BB81119636
:1002A000AA83BB83198113951983112339F72196EA
:1002B0001C81113009F100F111E018831C811150EB
:1002C0001A93198108810117B0F0E4EFFEE3098168
:1002D00001501127E00FF11F049100230AF41FEFD2
:1002E0003B812A81020F131F1B830A8319811395F7
:1002F0001983112339F721961C81123010E011F077
:1003000008F01FEF1F931B8104E00E942A1D00309C
:1003100010E009F41FEF0F91102329F0A981BA8191
:100320001196A983BA8329813A810D810150112741
:10033000020F131F1A83098308951DE11CBD11E0EC
:100340001DBD17EC15B918E314B910917C00106CA1
:1003500010937C001AE018B918E017B91EE01BB919
:1003600012EA1AB908952D981DE71CBD10917E015F
:100370001EBD1DB517FFFDCF10917F011EBD1DB520
:1003800017FFFDCF1DE31CBD5D9A000000000000BB
:1003900000005D9808952197A1E8B1E019810E94BD
:1003A0004B1E1F9310919D01112309F01FEF0F9118
:1003B000102311F010E007C0E4EFF1E009811127EC
:1003C000E00FF11F108110937E0110E010937F0168
:1003D0001981103021F4AEE7B1E018E041C01130CE
:1003E00021F4AEE7B1E019E03BC01230E1F51A812B
:1003F000103041F410919D01112309F01FEF1123DA
:1004000061F104C0113011F0133059F4AEE7B1E0DE
:1004100017E00E943C1EAEE7B1E01AE00E943C1ECD
:100420001CC0163021F0173011F0193021F4AEE75E
:10043000B1E017E0F3CF153081F410919D01112345
:1004400009F01FEF112321F0AEE7B1E017E003C080
:10045000AEE7B1E01AE00E943C1EAEE7B1E01BE05F
:100460000E943C1E27C0133029F510919D011123D5
:1004700009F01FEF112339F00091800110918101E3
:10048000107F102703C010918001107F188314FF84
:1004900005C0AEE7B1E01AE00E943C1E00917F016A
:1004A0001881107E102B10937F01AEE7B1E01CE0A5
:1004B0000E943C1E58DF08952797E8EFF1E00F8176
:1004C0001127E00FF11F10811B83ECEFF1E00F818A
:1004D0001127E00FF11F10811A831B8119301FEFC4
:1004E00010F009F011271F930B811A81011710E0FA
:1004F00009F01FEF0F91102309F48DC01A81139595
:100500001A830AE00E942A1D0A8311E11C8310E06D
:100510001D83153008F064C0E9EAFEE30D81112760
:10052000E00FF11F14911E83103039F41A811395D6
:100530001A830AE00E942A1D0A83E4EFF1E00F818A
:100540001127E00FF11FEF93FF930E81A0E1B0E0C0
:10055000E89465F80E94391D98010A811127020F5D
:10056000131FFEE3E9E5E00FF11F1491FF91EF91F6
:10057000108310E019831C811A931A8108810117D6
:1005800040F110919001112309F01FEF1F930E9479
:100590008D190F91102B11F021965BC01A8104E088
:1005A0000E942A1D098318E01A931A811A93F3DE18
:1005B000239612E30E94641A09811885011721F419
:1005C00010E003E00E94551A1A8113951A83112333
:1005D000A9F621961D8113951D83112309F099CF4A
:1005E0001FEF1093B8011C811A931DE01A931AE0B3
:1005F0001A930E94491A23961C830A811B810117B2
:1006000009F085CFECEFF1E00F811127E00FF11F2A
:100610001B8110831EC01B81193041F038F0E4EFBC
:10062000F1E00F811127E00FF11F12C0E4EFF1E0BC
:100630000F811127E00FF11FEF93FF93E9E5FEE330
:100640000B81005E1F4FE00FF11F1491FF91EF919E
:100650001083089522971A810E94111E19831F701A
:100660001883E8EFF1E00B811127E00FF11F1881EB
:100670001083E4EFF1E00B811127E00FF11FEF93FE
:10068000FF93E9E5FEE30881005E1F4FE00FF11FD5
:100690001491FF91EF911083198112951F701883A7
:1006A000E8EFF1E00B810F5F1127E00FF11F1881D8
:1006B0001083E4EFF1E00B810F5F1127E00FF11FD2
:1006C000EF93FF93E9E5FEE30881005E1F4FE00F23
:1006D000F11F1491FF91EF911083089521971091CC
:1006E000C101112309F01FEF112311F119810E949B
:1006F000111E1883E8EFF1E00A811127E00FF11FC6
:1007000018811F7010831A811A93D6DE2896E8EF9D
:10071000F1E00A810F5F1127E00FF11F1881129598
:100720001F7010831A811F5F1A93C6DE289606C0B9
:100730001A811A931A811A938DDF249608952497AB
:100740000C811D81A0E81A27103809F4003018F038
:100750000C811D8106C00C811D81019509F41A953B
:1007600010950E94191E19830883E8EFF1E0102FFD
:100770001F701083E9EF102F12951F7010831981DD
:100780001F701093FA0110E01B83133000F5E8EF9F
:10079000F1E00B811127E00FF11F10811A83E4EFC4
:1007A000F1E00B811127E00FF11FEF93FF93E9E5D3
:1007B000FEE30A81005E1F4FE00FF11F1491FF91CD
:1007C000EF9110831B8113951B831123F1F60C818C
:1007D0001D81A0E81A27103809F4003028F4E7EF4B
:1007E000F1E010E4108303C010E01093F7010895C6
:1007F0002197A4EFB1E010E0E4E0F0E031960000D2
:10080000319711F01D93FCCF10E000E000937E01C2
:1008100010937F01A8DD089523971091C201112341
:1008200009F01FEF112309F467C010E01A831C3090
:1008300008F062C01A81183050F51A811695188395
:100840001A8102E00E942A1D013051F4E4EFF1E028
:10085000188103E0011B1127E00FF11F16E009C00A
:10086000E4EFF1E0188103E0011B1127E00FF11F15
:1008700010E3108318811030A9F0E4EFF1E0188143
:1008800004E0011B1127E00FF11F10830BC0A4EF40
:10089000B1E010E0E4E0F0E031960000319711F0B3
:1008A0001D93FCCF10E01983183100F518E01A935E
:1008B0001A8104E00E942A1D0A936DDD239612E33B
:1008C0000E94641A198104E00E942A1D0F93088176
:1008D00013E0101B0F91011721F410E003E00E94B8
:1008E000551A1981139519831123F1F61A8113955D
:1008F0001A83112309F09BCF089522971091C2010A
:10090000112309F01FEF112309F44FC010E01983E0
:100910001C3008F04AC0ECE0F0E0FA93EA9310E0F3
:10092000108313E01A9310810881011708F1E4EF96
:10093000F1E003E00C193327E00FF31FEF93FF936F
:10094000E0E0FFE32C81220F331F220F331F0C2D19
:100950001127020F131FE00FF11F1491FF91EF9168
:100960001083E981FA811081139510831123E1F638
:10097000239610E01883103190F418E01A9319812F
:1009800004E00E942A1D0A9306DD239610E002E08F
:100990000E94551A188113951883112361F7198144
:1009A00013951983112309F0B3CF08950881198194
:1009B000E5E7F1E0B1E00E94D11D18E01A93109133
:1009C00099011A93E8DC2396E9E9F1E02497FB8387
:1009D000EA8313E0198310E018830E94E41D249633
:1009E00010E002E00E94551A082D017031F70895B9
:1009F000ECE0F0E00E948B1AC12E1091A6011A9330
:100A000018E01A9315E11A930E94FE1D23961123F4
:100A100031F000910C001FEF00FF112701C010E022
:100A20001093B70100910C001FEF02FF11271093E4
:100A3000C2011FEF01FF11271093C101089510E0BB
:100A400010938001109381011091BE01143078F44D
:100A5000A0E8B1E00091BE0117E0101B0E94311E1A
:100A60001091BC01103019F010EF1093810108951E
:100A700010E01A931091AB011A93ECDD249612E06A
:100A80001A931091AA011A93E5DD2496D8DF16E097
:100A900010937C01089510E01A931091A7011A9306
:100AA000D9DD249612E01A931091A6011A93D2DD93
:100AB0002496C5DF10E010937C01089510E01A938E
:100AC0001091A7011A930ADE239612E01A9310914F
:100AD000A6011A9303DE2396B2DF10E010937C0187
:100AE00008951091BE01143008F510E01A93E8EC57
:100AF000F1E00091BE011127E00FF11F10811A9360
:100B0000A9DD249612E01A93ECECF1E00091BE010D
:100B10001127E00FF11F10811A939CDD24968FDFBF
:100B2000109180011093810113E011C010E0109327
:100B3000F7011FE31093F60111E71093F5011093ED
:100B4000F40110E0109380011093810114E01093E0
:100B50007C0111E004EFE5E7F1E0B1E00E94D11D76
:100B6000089510E01093F70119E71093F6011DE3C3
:100B70001093F5011093F40110E01093800110938D
:100B8000810108EC1A930A9311DF229608951AEF57
:100B900010938201082D017009F0C6C029DF109161
:100BA0007D01103009F064C010917B01103009F410
:100BB0004CC0113089F41091A5011A9316E01A93D4
:100BC00017E01A930E94FE1D23961123F9F4109149
:100BD000A5011830D1F535C0123091F41091A5015E
:100BE0001A9316E01A9317E01A930E94FE1D23969B
:100BF000112309F013C01091A501183031F521C05F
:100C0000133029F51091A501163021F405DE239645
:100C10002FDF8AC01091A501173079F4FDDD2396EE
:100C20000091AF011091B0011A930A9388DD2696C6
:100C300006DF19E010937C0177C01091A5011830F0
:100C400021F4EADD239627DF6FC038DF6DC0153051
:100C500071F419E010937C010091AF011091B00183
:100C60001A930A936CDD269610E01093B7015CC0CE
:100C7000173011F0163029F40EDF11E010937C01CB
:100C800009C0113011F4F4DE0AC0183011F0193027
:100C900051F4EEDE10E0109380011093810110E01A
:100CA0001093B70141C01A3079F419E010937C0118
:100CB0000091AF011091B0011A930A9340DD26967E
:100CC00010E010938001EBCF133031F0143021F09D
:100CD000153011F01E3029F404DF11E010937C016F
:100CE000DECF1B3031F01C3021F01D3011F01230FE
:100CF000D9F410E010938001109381011A931091A0
:100D0000C4011A93A7DC249612E01A931091C30130
:100D10001A93A0DC249615E010937C011DE7109334
:100D200082011FEF1093B70108951E2D112309F0C2
:100D30001FEF112309F49BC010E0E12E10917D01FB
:100D4000153029F0173019F0193009F01C30B9F4BA
:100D500010917C011A9310E01A931DDB239610E08A
:100D600008E00E94551A10917C011A9311E01A9321
:100D700012DB239610E008E00E94551A4EC0109135
:100D80007D01143029F0163019F0183009F01B30AD
:100D900059F510917C011A9310E01A93FCDA23960E
:100DA00012E30E94641A10917C011A9311E01A93C5
:100DB000F2DA239612E30E94641A10917C011A93CE
:100DC00012E01A93E8DA239610E008E00E94551A20
:100DD00010917C011A9313E01A93DDDA239610E048
:100DE00008E00E94551A43C010917D011A3051F558
:100DF00010917C011A9310E01A93CDDA239610E03B
:100E000005E00E94551A10917C011A9311E01A9383
:100E1000C2DA239612E30E94641A10917C011A939D
:100E200012E01A93B8DA239612E30E94641A109122
:100E30007C011A9313E01A93AEDA239612E30E9410
:100E4000641A15C010917C011A93109199011A939C
:100E5000A2DA2396E9E9F1E02497FB83EA8313E021
:100E6000198310E018830E94E41D2496E7CF0895AB
:100E700008811981E2E9F1E0B2E00E94D11D55DF5D
:100E800010919001112309F01FEF10951F93112766
:100E9000082D027009F410950F91102B81F3109119
:100EA0009001112309F01FEF112331F11091BD01C1
:100EB000112309F01FEF1123E9F09ADC219613E0CA
:100EC00000E71A930A9319E11A930E94E0192396F6
:100ED00012E003E91A930A9312E31A930E94E019AD
:100EE000239613E000E71A930A9319E11A930E94DC
:100EF000E01923961FEF01C010E008951091B6018C
:100F0000112309F01FEF112379F01981185F19835C
:100F1000E89477F848E6312FE89460F8FE01A1E004
:100F2000B0E050E00E944819089521971091B60151
:100F3000112309F01FEF1123B9F01981185F1983EC
:100F4000E89477F848E6312FE89460F8A0E0B0E044
:100F500050E00E94481918E6412FFE01A1E0B0E0E0
:100F60000E943A19188101C010E00895219710914C
:100F7000B601112309F01FEF112309F446C0E894CC
:100F800077F848E610E0312FE89460F8A0E0B0E090
:100F900050E00E94481918E6412FFE01A1E0B0E0A0
:100FA0000E943A1918810E94091E1093A801E89422
:100FB00077F848E611E0312FE89460F8A0E0B0E05F
:100FC0000E94481918E6412FFE01A1E0B0E00E94FE
:100FD0003A1918810E94091E1093A701E89477F826
:100FE00048E612E0312FE89460F8A0E0B0E00E94FB
:100FF000481918E6412FFE01A1E0B0E00E943A191D
:1010000018810E94091E1093A6010895219710913E
:10101000B601112309F01FEF1123C1F11091A801AE
:101020000E94111E1F771883E89477F848E610E0B5
:10103000312FE89460F8FE01A1E0B0E050E00E949A
:1010400048191091A7010E94111E1883E89477F89F
:1010500048E611E0312FE89460F8FE01A1E0B0E02D
:1010600050E00E9448191091A6010E94111E1F73A2
:101070001883E89477F848E612E0312FE89460F896
:10108000FE01A1E0B0E050E00E94481908952197C8
:101090001091B601112309F01FEF112309F444C088
:1010A000E89477F848E613E0312FE89460F8E9EA2D
:1010B000F1E0A1E0B0E050E00E9448191091AA01CF
:1010C0000E94111E1883E89477F848E614E0312F47
:1010D000E89460F8FE01A1E0B0E050E00E944819F9
:1010E0001091AB010E94111E1883E89477F848E62E
:1010F00015E0312FE89460F8FE01A1E0B0E050E087
:101100000E9448191091AC010E94111E1883E894A6
:1011100077F848E616E0312FE89460F8FE01A1E088
:10112000B0E050E00E944819089521971091B6014F
:10113000112309F01FEF112309F459C0E89477F83F
:1011400048E613E0312FE89460F8A0E0B0E050E00A
:101150000E94481918E6412FE9EAF1E0A1E0B0E069
:101160000E943A19E89477F848E614E0312FE894A1
:1011700060F8A0E0B0E00E94481918E6412FFE0197
:10118000A1E0B0E00E943A1918810E94091E109354
:10119000AA01E89477F848E615E0312FE89460F862
:1011A000A0E0B0E00E94481918E6412FFE01A1E03E
:1011B000B0E00E943A1918810E94091E1093AB01F9
:1011C000E89477F848E616E0312FE89460F8A0E05C
:1011D000B0E00E94481918E6412FFE01A1E0B0E0FE
:1011E0000E943A1918810E94091E1093AC010895BB
:1011F000F8941FE761221091A8010E94121A109121
:10120000A7010E94211A1091A6010E94271A10E836
:10121000612A78940895F8941FE761221091A9013A
:101220000E94431A1091AA010E942D1A1091AB013D
:101230000E94351A1091AC010E943D1A10E8612AF3
:101240007894089510916B011093A80110916C018E
:101250001093A70110916D011093A60108951091AC
:1012600071011093A90110916E011093AA011091C0
:101270006F011093AB01109170011093AC010895B0
:10128000ECE0F0E0FA93EA9310E0108313E01A9395
:1012900010810881011720F1ECECF1E01127EC0D31
:1012A000F11FEF93FF931C2D1A933FDE2296FF91BF
:1012B000EF911083E8ECF1E01127EC0DF11FEF93B3
:1012C000FF931C2D1C5F1A9330DE2296FF91EF9145
:1012D0001083E981FA811081139510831123C9F6D7
:1012E00023961AE01A9321DE22961093BE010895E8
:1012F000ECE0F0E0FA93EA9310E0108313E01A9325
:10130000108108810117E8F0CA92ECECF1E0112796
:10131000EC0DF11F10811A93F1DD22961C2D1C5F3C
:101320001A93E8ECF1E01127EC0DF11F10811A93EC
:10133000E5DD2296E981FA8110811395108311234E
:1013400001F723961AE01A931091BE011A93D6DD85
:10135000229608951A811A3018F410E30E94941905
:1013600018E0612A04E919E11A930A931C81CF93CA
:10137000DF931A9310E01A9310E01A9310E21A9375
:10138000689463F80E94BB1BDF91CF9122961AE309
:101390000E94941919811A3018F410E30E949419CC
:1013A00018E0612A04E919E11A930A931B81CF938B
:1013B000DF931A9310E01A9310E01A9310E21A9335
:1013C000689463F80E94BB1BDF91CF9122961AE3C9
:1013D0000E94941918811A3018F410E30E9494198D
:1013E00018E0612A04E919E11A930A931A81CF934C
:1013F000DF931A9310E01A9310E01A9310E21A93F5
:10140000689463F80E94BB1BDF91CF9122960895E8
:1014100018E0612A04E919E11A930A931C81CF9319
:10142000DF931A9310E01A9310E01A9310E21A93C4
:10143000689463F80E94BB1BDF91CF9122961EE255
:101440000E94941918E0612A04E919E11A930A9399
:101450001B81CF93DF931A9310E01A9310E01A9335
:1014600010E21A93689463F80E94BB1BDF91CF913E
:1014700022961EE20E94941918E0612A04E919E1FB
:101480001A930A931A81CF93DF931A9310E01A9359
:1014900010E01A9310E21A93689463F80E94BB1B41
:1014A000DF91CF9122960895CF93DF93ECECF1E09A
:1014B00008811127E00FF11F10811A93E8ECF1E089
:1014C00009811127E00FF11F10811A9310E01A9380
:1014D00041DFDF91CF910895E0EDF1E00881112720
:1014E000E00FF11F1081112309F01FEF1123A9F064
:1014F000E4EDF1E008811127E00FF11F1083E0ED2A
:10150000F1E00881E00FF11F10E01083E8EDF1E059
:1015100008811127E00FF11F10836ADA0895E0EDCA
:10152000F1E008811127E00FF11F1081112309F06C
:101530001FEF1123F1F0E4EDF1E008811127E00F36
:10154000F11FEF93FF93EDE0F0E00E948B1AFF9103
:10155000EF911083E8EDF1E008811127E00FF11F12
:10156000EF93FF93EEE0F0E00E948B1AFF91EF9172
:1015700010833EDA089510E11A931091C3011A9373
:10158000BDDC229611E11A931091C4011A93B6DCC6
:101590002296089510E11A93C8DC22961093C30195
:1015A00011E11A93C2DC22961093C4010895CF93DF
:1015B000DF9318E0612A04E919E11A930A931DE008
:1015C0000E94EA1C1AE00E94EA1CDF91CF91CF939F
:1015D000DF9318E0612A04E919E11A930A93ECEB0E
:1015E000FCE30E94B31B1DE00E94EA1C1AE00E946B
:1015F000EA1CDF91CF91CF93DF9318E0612A04E9D1
:1016000019E11A930A93E0EDFCE30E94B31B1DE07D
:101610000E94EA1C1AE00E94EA1CDF91CF91CF934E
:10162000DF9318E0612A04E919E11A930A93ECEDBB
:10163000FCE30E94B31BDF91CF91CF93DF93109116
:10164000A6011A931091A7011A931091A8011A9359
:1016500081DEDF91CF91CF93DF9318E0612A04E917
:1016600019E11A930A9319E20E94EA1C1DE00E94F4
:10167000EA1C1AE00E94EA1CDF91CF91CF93DF931E
:1016800018E0612A04E919E11A930A93E2EFFCE3F6
:101690000E94B31BDF91CF91CF93DF931091AA01EA
:1016A0001A931091AB011A931091AC011A93B0DE0A
:1016B000DF91CF91CF93DF9318E0612A04E919E11C
:1016C0001A930A9319E20E94EA1C1DE00E94EA1C88
:1016D0001AE00E94EA1CDF91CF91ECE0F0E0FA936F
:1016E000EA9310E0108313E01A9310810881011728
:1016F00008F444C0CF93DF9318E0612A04E919E1AC
:101700001A930A93E8E0FDE30E94B31B1C2D1F5FB0
:10171000CF93DF931A9310E01A9310E01A9310E21C
:101720001A93689463F80E94BB1BDF91CF91E2E1AA
:10173000FDE30E94B31BDF91CF91CF93DF93CA9259
:10174000B3DEDF91CF91CF93DF9318E0612A04E9F4
:1017500019E11A930A9319E20E94EA1C1DE00E9403
:10176000EA1C1AE00E94EA1CDF91CF91E981FA811C
:10177000108113951083112309F0B8CF2396CF93CE
:10178000DF9318E0612A04E919E11A930A93EEE164
:10179000FDE30E94B31B1091A901CF93DF931A932D
:1017A00010E01A9310E01A9310E21A93689463F809
:1017B0000E94BB1BDF91CF91EDE2FDE30E94B31BC2
:1017C000DF91CF91CF93DF9318E0612A04E919E10B
:1017D0001A930A930091A9011127AAE0B0E0E894B6
:1017E00065F80E94391DFEE3EEEAE00FF11F0E944A
:1017F000B31B1DE00E94EA1C1AE00E94EA1CDF9164
:10180000CF91CF93DF9318E0612A04E919E11A938D
:101810000A93E2E3FDE30E94B31BE6E0F0E00E94DE
:10182000941ACF93DF931A930A9310E01A9310E05F
:101830001A9310E21A93689463F8689465F8E89430
:1018400074F875F80E94941CDF91CF9119E20E9400
:10185000EA1C1DE00E94EA1C1AE00E94EA1CDF91CB
:10186000CF91CF93DF9318E0612A04E919E11A932D
:101870000A93E1E4FDE30E94B31BE8E0F0E00E947C
:10188000941ACF93DF931A930A9310E01A9310E0FF
:101890001A9310E21A93689463F8689465F8E894D0
:1018A00074F875F80E94941CDF91CF9119E20E94A0
:1018B000EA1C1DE00E94EA1C1AE00E94EA1CDF916B
:1018C000CF91CF93DF9318E0612A04E919E11A93CD
:1018D0000A93E0E5FDE30E94B31BE0E1F0E00E9423
:1018E000941ACF93DF931A930A9310E01A9310E09F
:1018F0001A9310E21A93689463F8689465F8E89470
:1019000074F875F80E94941CDF91CF9119E20E943F
:10191000EA1C1DE00E94EA1C1AE00E94EA1CDF910A
:10192000CF91CF93DF9318E0612A04E919E11A936C
:101930000A93EFE5FDE30E94B31B10917B01CF9367
:10194000DF931A9310E01A9310E01A9310E21A939F
:10195000689463F80E94BB1BDF91CF91EDE2FDE339
:101960000E94B31BDF91CF9110917B01103059F48D
:10197000CF93DF9318E0612A04E919E11A930A93DF
:10198000EEE6FDE333C0113059F4CF93DF9318E056
:10199000612A04E919E11A930A93E8E7FDE326C0F6
:1019A000123059F4CF93DF9318E0612A04E919E16A
:1019B0001A930A93E8E8FDE319C0133059F4CF9362
:1019C000DF9318E0612A04E919E11A930A93ECE91C
:1019D000FDE30CC01430A9F4CF93DF9318E0612A23
:1019E00004E919E11A930A93E3EBFDE30E94B31BA8
:1019F0001DE00E94EA1C1AE00E94EA1CDF91CF91D0
:101A000016C01530A1F4CF93DF9318E0612A04E9E2
:101A100019E11A930A93E2ECFDE30E94B31B1DE067
:101A20000E94EA1C1AE00E94EA1CDF91CF91ECE0D0
:101A3000F0E00E948B1AC12ECF93DF9318E0612A49
:101A400004E919E11A930A93ECECFDE30E94B31B3D
:101A5000CF93DF93CA9210E01A9310E01A9310E22A
:101A60001A93689463F80E94BB1BDF91CF91EDE25B
:101A7000FDE30E94B31BDF91CF91ACE0B0E00C918D
:101A800002FF0EC0CF93DF9318E0612A04E919E149
:101A90001A930A93EBEDFDE30E94B31BDF91CF9104
:101AA000ACE0B0E00C9101FF0EC0CF93DF9318E0E3
:101AB000612A04E919E11A930A93E5EEFDE30E9415
:101AC000B31BDF91CF91ACE0B0E00C9100FF0EC0F2
:101AD000CF93DF9318E0612A04E919E11A930A937E
:101AE000EFEEFDE30E94B31BDF91CF911C2D103070
:101AF00071F4CF93DF9318E0612A04E919E11A9396
:101B00000A93EAEFFDE30E94B31BDF91CF91CF93DD
:101B1000DF9318E0612A04E919E11A930A931DE0A2
:101B20000E94EA1C1AE00E94EA1CDF91CF91CF9339
:101B3000DF9318E0612A04E919E11A930A93EFEFA1
:101B4000FDE30E94B31BEDE0F0E00E948B1ACF93FF
:101B5000DF931A9310E01A9310E01A9310E21A938D
:101B6000689463F80E94BB1BDF91CF91E3E1FEE331
:101B70000E94B31B1DE00E94EA1C1AE00E94EA1CAE
:101B8000DF91CF91CF93DF9318E0612A04E919E147
:101B90001A930A93EFE1FEE30E94B31BEEE0F0E03C
:101BA0000E948B1ACF93DF931A9310E01A9310E0E0
:101BB0001A9310E21A93689463F80E94BB1BDF919A
:101BC000CF91E3E3FEE30E94B31B1DE00E94EA1CF9
:101BD0001AE00E94EA1CDF91CF91CF93DF9318E0C7
:101BE000612A04E919E11A930A93EFE3FEE30E94E4
:101BF000B31BEFE0F0E00E948B1ACF93DF93012F2D
:101C0000112700230AF41FEF1A930A9310E01A9386
:101C100010E01A9310E21A93689463F8689465F8D8
:101C2000E89474F875F80E94941CDF91CF91E3E377
:101C3000FEE30E94B31B1DE00E94EA1C1AE00E9412
:101C4000EA1CDF91CF9108952197ECEEF1E0EF933C
:101C5000FF933196FA93EA9317E01A9317EF6122F4
:101C60001FEB612217E00881101BFF91EF91108399
:101C70002396ECE0F0E0FA93EA93EF93FF93EB8185
:101C8000FC811081FF91EF911083EF93FF93ECEDB6
:101C9000F1E01081FF91EF911A93108108810117F3
:101CA00050F1ECEDF1E01127EC0DF11F10811B83D9
:101CB0001D3241F01B3231F0193321F018F410338A
:101CC00008F01894C1F41B811A9311E01A93FE01D5
:101CD000EF93FF93ECEEF1E0EF93FF9317E01F9388
:101CE00090E00E94A21A2296E981FA811081139550
:101CF0001083112399F623961C2D1F5FE981FA8129
:101D00001083ECEEF1E01FEB6122E89461F800E053
:101D10000E940E1B089526971091DE01103211F4D7
:101D200013E001C012E01D831091DD011C83143704
:101D300089F5CF93DF93FE013596FA93EA9384DF1A
:101D4000DF91CF910093A6010D811091DC01011765
:101D500008F059F4CF93DF93FE013596FA93EA9396
:101D600073DFDF91CF910093A7010D811091DC010A
:101D7000011708F059F4CF93DF93FE013596FA93DB
:101D8000EA9362DFDF91CF910093A8013FD92196BA
:101D90002FDA2AC11133B0F1143309F098F51C8100
:101DA0001153D12EECECF1E00D2D1127E00FF11FB6
:101DB000EF93FF93CF93DF93FE013596FA93EA9367
:101DC00043DFDF91CF91FF91EF9100830D8110915F
:101DD000DC01011708F0A1F4E8ECF1E00D2D11276A
:101DE000E00FF11FEF93FF93CF93DF93FE01359642
:101DF000FA93EA9329DFDF91CF91FF91EF9100836E
:101E000077DAF2C0123669F4CF93DF93FE0135968C
:101E1000FA93EA9319DFDF91CF91102FEEE0F0E013
:101E2000ACC0133669F4CF93DF93FE013596FA9375
:101E3000EA930ADFDF91CF91102FEFE0F0E09DC031
:101E40001237D9F51091AA011A931091AB011A9388
:101E50001091AC011A930E94300126960093AD01B7
:101E60001093AE010F931F93CF93DF93FE0135962E
:101E7000FA93EA93E9DEDF91CF913F912F91020F20
:101E8000131FE0E1F0E098010E94851A0091AD0176
:101E90001091AE010F931F93E0E1F0E00E94941ABD
:101EA000019509F41A9510953F912F91020F131F78
:101EB0000093AF011093B00197C0143671F5CF9322
:101EC000DF93FE013596FA93EA93BEDEDF91CF9160
:101ED0000093AA010D811091DC01011708F059F45B
:101EE000CF93DF93FE013596FA93EA93ADDEDF914F
:101EF000CF910093AB010D811091DC01011708F027
:101F000041F5CF93DF93FE013596FA93EA939CDE79
:101F1000DF91CF910093AC011CC0153669F4CF93CB
:101F2000DF93FE013596FA93EA938EDEDF91CF912F
:101F3000102FECE0F0E021C0173779F4CF93DF9356
:101F4000FE013596FA93EA937FDEDF91CF910093FD
:101F5000A9019DD821965FD947C01D3689F4CF933A
:101F6000DF93FE013596FA93EA936EDEDF91CF910F
:101F7000102F10937B01E5E0F0E00E94751A34C049
:101F8000163661F4CF93DF93FE013596FA93EA9308
:101F90005BDEDF91CF91E6E0F0E01BC01F3661F41D
:101FA000CF93DF93FE013596FA93EA934DDEDF91EE
:101FB000CF91E8E0F0E00DC0163779F4CF93DF93CE
:101FC000FE013596FA93EA933FDEDF91CF91EAE086
:101FD000F0E098010E94851A07C0183729F4109183
:101FE000BE011A9379DA2196ECEDF1E0EF93FF93BD
:101FF0003196FA93EA931FE01A9317EF61221FEBD1
:1020000061221FE00881101BFF91EF91108323963E
:102010000E94C7050E94F804CADA089521970E9419
:102020008D19112309F455C00E94701918831830B6
:1020300069F41091DC01103041F0ECEDF1E0108119
:1020400011501F3008F01FE0108343C01D3041F5D0
:10205000ECEDF1E01081103031F0CF93DF935BDED7
:10206000DF91CF9101C0A3DA0E948D19112319F0DD
:102070000E947019F9CFECEDF1E0EF93FF933196E8
:10208000FA93EA931FE01A9317EF61221FEB612284
:102090001FE00881101BFF91EF911083239619C058
:1020A00018811A3721F018F4103208F0189489F4C6
:1020B00018811A9311E01A93FE01EF93FF93ECED50
:1020C000F1E0EF93FF931FE01F9390E00E94A21AAC
:1020D000229608958DD80E940608219608959BD8CF
:1020E0000E944708219608950E949D010E94F803CE
:1020F0002196ECEDF1E0EF93FF933196FA93EA939A
:102100001FE01A9317EF61221FEB61221FE0088185
:10211000101BFF91EF911083239610E8612A7894A9
:102120001AEF1093820110E010937D01E4E0F0E0DB
:102130000E948B1A153A71F115EAE4E0F0E00E9472
:10214000751A13E0E5E00E94751A10E006E6EAE071
:1021500098010E94851A10E004E6E6E0F0E098019C
:102160000E94851A10E000E0E8E0F0E098010E948B
:10217000851A17E0ECE0F0E00E94751A1AE0EDE035
:102180000E94751A1CE3EEE00E94751A10E0EFE061
:102190000E94751A10E004E60E94551A18E40E9485
:1021A00031191093B50118E60E9431191093B60148
:1021B00010E004E60E94551A1091B601112309F0AF
:1021C0001FEF1F9318E60E9431190F91102B1093E7
:1021D000B60110E01093A401E5E0F0E00E948B1A34
:1021E00010937B011091B601112309F01FEF1F938B
:1021F00010917B0114301FEF08F011270F9110236D
:102200001F9314E11A930E9495072296153A10E045
:1022100009F01FEF0F91102379F111E01093AA013B
:102220001093AB0114E11093AC010E9406082196B3
:102230000E9447082196ECE0F0E0FA93EA9310E060
:10224000108313E11A9310810881011768F0CA9274
:1022500010E01A930E947E072296E981FA8110818C
:1022600013951083112381F7239614E11A9315EA2D
:102270001A930E947E0722961091B601112309F04D
:102280001FEF1F9310917B0114301FEF08F01127EF
:102290000F91102361F00E94B60721960E949508C5
:1022A00021960E9440090E94F8080E940B09109193
:1022B000AA011A931091AB011A931091AC011A93D1
:1022C0000E94300126960093AD011093AE010F934A
:1022D0001F93E0E1F0E00E94941A019509F41A9529
:1022E00010953F912F91020F131F0093AF01109390
:1022F000B0010E94F8045BD910E004E60E94551A70
:102300000E947D0422960E947D0422960E947D04F4
:1023100022960E94F8032196CF93DF937FDEDF9110
:10232000CF911091A201112309F01FEF112309F49D
:1023300053C010E01093A2011091AA011A931091BA
:10234000AB011A931091AC011A930E9430012696AA
:102350000093AD011093AE010F931F93E0E1F0E005
:102360000E94941A019509F41A9510953F912F91A6
:10237000020F131F0093AF011093B0011091A3013E
:10238000112309F01FEF10951F931091A601103033
:1023900010E009F41FEF0F91102391F01091BE018E
:1023A0001A939AD821960E94B60721960E94950802
:1023B00021960E94F8080E940B091FEF1093A301B9
:1023C0001091A601113031F410E01093A3011FEF1A
:1023D00010939F010E94F8041091A101112309F0AC
:1023E0001FEF112309F46AC010E01093A1010E94AD
:1023F00022090E942F091091BE01143098F5009116
:10240000B9011091A701011710E009F41FEF1F9304
:102410000091BA011091A601011710E009F41FEF15
:102420000F91102310939101112309F01FEF1F93B7
:102430001091C001112309F01FEF10950F91102387
:102440001093BF01112309F01FEF1093C0011091E9
:10245000BF01112309F01FEF112339F01EE0109383
:102460007D0103C010E01093BF0110917B01143077
:1024700028F51091BE01143008F5E0EDF1E000916F
:10248000BE011127E00FF11F1081112309F01FEF8A
:102490001123A1F0E4EDF1E00091BE011127E00F5E
:1024A000F11FD08070E07D1508F4DA94E4EDF1E0DE
:1024B0000091BE011127E00FF11FD0821091A00101
:1024C000112309F01FEF112309F41FC110E010932D
:1024D000A00110919F01112309F01FEF1F9310918C
:1024E000A8011E3110E009F41FEF0F911023B1F085
:1024F00010E010939F01EFE0F0E00E948B1AC12ED4
:102500001C2D103059F00091A8011C2D100F1093B4
:10251000A8010E94060821960E94F808E5EAF1E069
:102520002497FB83EA8319E0198310E018830E9443
:10253000E41D24960E9422091091BE01143060F51A
:10254000E8ECF1E00091BE011127E00FF11F1081CE
:102550001093B901ECECF1E01127E00FF11F1081AD
:102560001093BA01E8EDF1E01127E00FF11F10819F
:102570001093BB01E4EDF1E01127E00FF11F108192
:102580001093BC01E0EDF1E01127E00FF11F108185
:10259000112361F01FEF0AC010E01093B9011093EE
:1025A000BA011093BC011093BB0110E01093BD0160
:1025B0001091C501112309F01FEF1123B9F11FEF8D
:1025C0001093B70111270091C40170E0701720F437
:1025D0000A950093C4011FEF109541F11BE310937E
:1025E000C4010E94F803219611E008EB1A930A93A4
:1025F0001AE01A93E5D6239611270091C30170E0E3
:10260000701720F40A950093C3011FEF109571F025
:102610001FEF1093C70110E01093C50110E0109355
:10262000C4011DE010937D010E94F8041091BF01C8
:10263000112309F01FEF112321F110E01093BF01C6
:102640001FEF1093BD01E0EDF1E00091BE011127F5
:10265000E00FF11F1FEF108310E01093BC01E4EDB9
:10266000F1E0E00FF11F1083EEE0F0E054D710939B
:10267000BB01E8EDF1E01127E00FF11F1091BB0164
:1026800010831091BD01112309F01FEF112369F18F
:102690001091BC01103049F5E8EDF1E00091BE0168
:1026A0001127E00FF11F00810093BB0170E070174C
:1026B00018F40A950093BB01E8EDF1E00091BE012A
:1026C0001127E00FF11F1091BB011083103031F47E
:1026D0001091BE011A930E946C0A06C00E94F80372
:1026E000219614E01A9342D621961091C701112326
:1026F00009F01FEF112339F00E94F803219614E02E
:102700001A9349D621960E94C70510918C01112376
:1027100009F01FEF112309F404C110E01093980190
:102720000AEF009396011093970110917D011030EC
:10273000D9F4EEEBF1E02497FB83EA8314E01983EC
:1027400010E018830E94E41D24960E94780911E08D
:1027500010937C010E94710512E00EEEE5E7F1E0B6
:10276000B1E00E94D11DAFC0163039F4E6EAF1E0C5
:102770002497FB83EA8317E108C0173081F4E7EA66
:10278000F1E02497FB83EA831BE3198310E01883AD
:102790000E94E41D24969EDC0E94C70594C014305C
:1027A000B9F4ECECF1E00091BE011127E00FF11F4C
:1027B000D080EDE0F0E02497FB83EA8317E11983F2
:1027C00010E018830E94E41D2496ECECF1E018C0A0
:1027D000153009F5E8ECF1E00091BE011127E00F9A
:1027E000F11FD080EDE0F0E02497FB83EA831BE348
:1027F000198310E018830E94E41D2496E8ECF1E0B0
:102800000091BE011127E00FF11FD1920E947809BB
:102810000E94710558C0183039F4EAEAF1E02497B3
:10282000FB83EA831FE108C0193071F4EBEAF1E0A1
:102830002497FB83EA831CE0198311E018830E942C
:10284000E41D24964CDCA8CF1A30A1F4E0E1F0E0BE
:102850006BD60F5F1F4FE0E1F0E0980156D631963E
:10286000A091AF01B091B0011196A093AF01B093C8
:10287000B00192CF1B3091F4E3ECF1E02497FB839D
:10288000EA831BE3198310E018830E94E41D249659
:102890000E94BB0A10E01093C6017ECF1C3099F451
:1028A000E4ECF1E02497FB83EA831BE3198310E057
:1028B00018830E94E41D24960E94BB0A10E0109326
:1028C000C6010E94C70515E008E21A930A9312E0B8
:1028D0001A9376D5239600919601109197011A9339
:1028E0000A930E943807229611270091980172E0FE
:1028F000071720F40395009398011FEF109531F00E
:1029000010E00BE400939601109397011091900151
:10291000112309F01FEF109509F407CF10E0109371
:102920008C0110918D01112309F01FEF112309F47F
:1029300008C110E0109398010AEF009396011093DC
:10294000970110917D011030D9F4EEEBF1E024975E
:10295000FB83EA8310E0198314E018830E94F11DC1
:1029600024960E94780911E010937C010E94710561
:1029700012E00EEEE5E7F1E0B1E00E94D11DB3C038
:10298000163049F4E6EAF1E02497FB83EA8310E08D
:10299000198317E10AC0173081F4E7EAF1E02497C0
:1029A000FB83EA8310E019831BE318830E94F11D67
:1029B000249690DB0E94C70596C01430B9F4ECEC65
:1029C000F1E00091BE011127E00FF11FD080EDE092
:1029D000F0E02497FB83EA8310E0198317E1188362
:1029E0000E94F11D2496ECECF1E018C0153009F5B9
:1029F000E8ECF1E00091BE011127E00FF11FD0805B
:102A0000EDE0F0E02497FB83EA8310E019831BE3F9
:102A100018830E94F11D2496E8ECF1E00091BE01BC
:102A20001127E00FF11FD1920E9478090E947105D1
:102A30005AC0183049F4EAEAF1E02497FB83EA83AC
:102A400011E019831FE10AC0193071F4EBEAF1E0DB
:102A50002497FB83EA8311E019831CE018830E940A
:102A6000F11D24963CDBA6CF1A30A1F4E0E1F0E0A2
:102A70005BD501501040E0E1F0E0980146D5319679
:102A8000A091AF01B091B0011197A093AF01B093A5
:102A9000B00190CF1B3091F4E3ECF1E02497FB837D
:102AA000EA8310E019831BE318830E94F11D24962A
:102AB0000E94BB0A10E01093C6017CCF1C3099F431
:102AC000E4ECF1E02497FB83EA8310E019831BE335
:102AD00018830E94F11D24960E94BB0A10E01093F7
:102AE000C6010E94C70515E008E21A930A9312E096
:102AF0001A9366D4239600919601109197011A9328
:102B00000A930E943807229611270091980172E0DB
:102B1000071720F40395009398011FEF109531F0EB
:102B200010E00BE40093960110939701109190012F
:102B3000112309F01FEF109509F403CF10E0109353
:102B40008D0110918E01112309F01FEF112309F45B
:102B500064C010E01093C7011093C5011093C60123
:102B600010917D01103059F41091BE01133019F00D
:102B700010F016E001C014E010937D0119C014306C
:102B800011F415E013C0153011F416E00FC0163023
:102B900011F417E00BC0173011F418E007C018301B
:102BA00011F419E003C0193031F41AE010937D01DB
:102BB0000E94C70520C01A30D9F40E94F80321965C
:102BC00015E008E21A930A9314E11A93F9D32396B5
:102BD00013E000E71A930A9314E11A93F1D32396B2
:102BE00015E008E21A930A9314E11A93E9D32396A5
:102BF00010E010937D0115E008E21A930A9312E0A9
:102C00001A93DED3239613E008EE1A930A930E94D8
:102C10003807229610E010938E0110918F01112336
:102C200009F01FEF112309F400C110E01093C70150
:102C300015E008E21A930A9312E01A93C1D323967F
:102C40001091BD01112309F01FEF109509F472C016
:102C500010917D011030F1F411E010937C0110917E
:102C6000BE01143018F40E9471050EC00E94B10517
:102C70001091C601112309F01FEF109511F00E9469
:102C8000CA0A1BE010937D0110E01093C501109358
:102C9000C6014EC01B3011F41CE048C01C3091F43A
:102CA00012E010937D011FEF1093C5010E94F803FD
:102CB000219613E000E71A930A9319E11A9380D33F
:102CC000239636C0123019F51091C501112309F071
:102CD0001FEF1093C60110E01093C5010E94F80386
:102CE000219615E008E21A930A9314E11A9368D327
:102CF000239613E000E71A930A9314E11A9360D322
:102D0000239615E008E21A930A9314E10BC010E031
:102D10001093C5010E94F803219613E000E71A936F
:102D20000A9319E11A934CD3239610E010937D0176
:102D30000E94C70513E008EE1A930A930E94380711
:102D40002296109391011091BD01112309F01FEFFC
:102D5000112321F10E94710510919101112309F0B5
:102D60001FEF109591F01091BE011A930E948F0AE7
:102D700021960E94F803219613E000E71A930A9324
:102D800019E11A931DD3239606C01091BE011A9320
:102D90000E946C0A219610E010937D011091C501EC
:102DA000112309F01FEF1F931091C701112309F0A0
:102DB0001FEF0F911023B9F00E94F803219613E042
:102DC00000E71A930A9319E11A93FAD2239610E0B6
:102DD00010937D010E94C70510E01093C501109368
:102DE000C7011093C60110919101112309F01FEF43
:102DF0001F9310917D011B3019F01C3009F0123027
:102E000010E009F41FEF0F91102361F00E94F80306
:102E1000219611E01A93BFD2219610E010937D0104
:102E20000E94C70510E010938F010E949506109133
:102E3000C501112309F01FEF1F931091BD0111234C
:102E400009F01FEF0F91102B51F010919D011123EC
:102E500009F01FEFE894112329F0689403C0E89467
:102E60003099689418B113F918B956CAF89412E059
:102E700001E31EBF0DBF1127E0E1F0E0A0E0B0E0EC
:102E800031960000319711F01D93FCCFA0E0B1E026
:102E9000E0E0F8E031960000319711F01D93FCCF8F
:102EA000C6E7D2E0F8941FE7612213E8109300010F
:102EB00016BD14E015BD11E010936E0018E11093DB
:102EC000C10010E11093C40010E01093C50010E0A1
:102ED0001093010110930201109303011091C1009E
:102EE00010681093C10010E0109324011093250185
:102EF000109326011EE01093C2001091C6001CE042
:102F00001093B8001FEF1093740112E31093730134
:102F100066247724E9C8EF93FF930F931F931FB79D
:102F20001F931091000106B5100F16BD1FE7612217
:102F30000E94280000917201002319F00A95009365
:102F40007201AF93BF93E7E6F1E0A081B1811196E2
:102F5000A083B183A281B381119604EF11E0A01781
:102F6000B10738F0A01BB11BA283B383BF91AF910F
:102F700005C0A283B383BF91AF9169C02F9322276D
:102F8000EBE6F1E01081018113951C3308F442C097
:102F900010E003951193216011810C33E8F100E0FA
:102FA00013950193226001811831A0F110E003957F
:102FB000119324601181183050F0179520F4111FDF
:102FC0000F3150F119C0111F003230F115C01795A3
:102FD00020F4111F003200F10FC0111F123051F404
:102FE0003F93328133703F9111F40E3101C00D31A6
:102FF00098F002C00F3180F001E013950193018138
:103000001D3040F011E003951193043628F000E0E4
:10301000019303C0108301C00083022F047041F0AC
:10302000109171011395173008F010E010937101A1
:103030002F930E942C012F912F93217011F00E9449
:1030400028012F91227011F00E9424012F91BB20A2
:1030500009F0BA94E0917501F0917601FF2311F423
:10306000EE2331F03197E0937501F093760119F476
:10307000182D1E7F812EE0919201F0919301FF2384
:1030800011F4EE2331F03197E0939201F093930124
:1030900019F4182D1D7F812E10E8612A1F911FBF82
:1030A0001F910F91FF91EF911895EF93FF930F935D
:1030B0001F931FB71F9310912601112331F4109114
:1030C000C1001F7D1093C10020C000912501112770
:1030D000E7E2F1E0E00FF11F10811093C6001091BC
:1030E00026011A951093260129F41091C1001F7D25
:1030F0001093C1001091C00010641093C00003959C
:10310000003409F40027009325011F911FBF1F9170
:103110000F91FF91EF911895EF93FF930F931F93EA
:103120001FB71F9310910301103219F40091C600CC
:103130001BC01091C6001F93112700910101E4E00C
:10314000F1E0E00FF11F1F9110831091030113951F
:10315000109303010395003209F400270093010145
:103160000091C00007FDDECF1F911FBF1F910F917F
:10317000FF91EF91189510E0109374011091B90030
:103180001C7F103019F410E91093BC0014EA10935E
:10319000BC0010917301109372011091BC00107863
:1031A00039F4109172011123C1F71093BC004FC084
:1031B0001091B9001C7F183009F449C046C077FA55
:1031C0008EF01091B9001C7F183FD9F3103021F414
:1031D00010E91093BC00000004E90093BC001FEF4D
:1031E0001093740108954093BB0014E81093BC0041
:1031F00010917301109372011091BC00107829F4A2
:10320000109172011123C1F722C01091B9001C7FE7
:103210001832D9F01831C9F01034B9F018C014ECD4
:1032200011976AF209F414E81093BC001091BC00E5
:1032300017FFFCCF1091B9001C7F183511F0103525
:1032400031F41091BB001193EACF1FEF0895109154
:10325000B9001C7F103019F410E91093BC0010E085
:103260000895412F88DF8894441FBDDFB12FA7DF69
:103270001B2F089580DF0894441FB5DF112319F038
:10328000CEDF112311F7E3DF0FEF009374010895F0
:1032900072DF8894441FA7DF1123E1F0432FA3DFDF
:1032A0001123C1F060FA26F4422F9DDF112391F023
:1032B000AA2311F4BB2361F0552311F4419106C0F8
:1032C000513011F4459102C034D131961197EDCFB0
:1032D00076DFBBCFBCDF0FEF009374011127089599
:1032E000109103011123E1F3009102011127E4E0A1
:1032F000F1E0E00FF11F1081F894E0910301EA95ED
:10330000E093030167FC7894009102010395003279
:1033100009F4002700930201089511270091030189
:10332000002309F010950895009126010034E1F37F
:10333000F89400912401E7E2F1E0E00F0027F01F8C
:10334000108300912601039500932601009124012A
:103350000395003409F40027009324010091C10073
:1033600000620093C10067FC78940895239717E0EA
:1033700000ED1A83098319E1188322D013E008EEC7
:103380001A83098319E118831BD01B811A951B83AB
:1033900071F723960895239716E000E41A830983B2
:1033A00019E118830DD013E000E21A83098319E1B3
:1033B000188306D01B811A951B8371F723960895F5
:1033C000579AE89465F8A981BA81E8E2F0E0EA1733
:1033D000FB0742F0AA2321F4B880BB20F1F708953F
:1033E000A8E2B0E0E0E1F7E2EA17FB0712F4A0E19F
:1033F000B7E2EE27FF2740E05AE668E170E089D3A4
:103400001A830983B880A981BA815F9A0000119755
:10341000E9F7A981BA815F9800001197E9F7BB200D
:1034200091F708951C3308F010E0F894E7E6F1E016
:10343000148310E0119311931193119367FC789406
:1034400008951C3308F010E010936C0108951831B2
:1034500008F010E010936D010895112311F010325F
:1034600008F011E010936E010895112311F01D3042
:1034700008F011E010936F010895143608F010E081
:10348000109370010895173008F010E01093710147
:1034900008951A810981DAD2B02FA12F288130E056
:1034A000E89465F807D3102F0895A8011127411754
:1034B000510749F00AE71CE0015010400000E1F715
:1034C00041505040B9F70895112331F006E20A95B2
:1034D0000000E9F71A95D1F7089567FC7894F999F7
:1034E000FCCFF894F999F9CF0895F7DF4F93E1BD38
:1034F000F2BDF89A000040B5141719F010BDFA9A01
:10350000F99A4F9167FC78940895122FEEDF132FEC
:103510003196EBDF0895E1DFE1BDF2BDF89A0000DE
:1035200010B567FC78940895F6DF012F3196F3DF2C
:103530000895D3DFE1BDF2BDF89A000040B567FC05
:10354000789408953F912F910F91BF91AF91FF9182
:10355000EF912F933F93892F80711C911395892FA1
:10356000837051F0869531F41F93D5DF312F1F9171
:10357000319603C0359101C03191332329F0892F51
:1035800080712C91011708F40895402F411B542F8E
:10359000431B50F1211730F4632F620F061720F1FF
:1035A000062F22C0AF93BF93EF93FF93522F511B6F
:1035B000541708F4452F5527A10FB51FA40FB51FA9
:1035C0001196FD01E30FF51F542F5395892F80713C
:1035D0000E9002925A95E1F7FF91EF91BF91AF9152
:1035E000012F030F040F11F4340F3395892F8071CD
:1035F0000C932227A10FB21F892F837041F086956B
:1036000021F489DF012E319603C0059001C001909D
:10361000892F80710D923A9579F7089533272227E3
:10362000BB27AA2766FA1EF476DF319601C01191F6
:10363000112319F4112700270895512F002311F0A9
:1036400053956DC066FA1EF466DF319601C0119184
:10365000E89462F81D3259F45A9561F3689462F85F
:1036600066FA1EF458DF319612C0119110C01B3259
:1036700059F45A95F9F2E89462F866FA1EF44BDFB1
:10368000319605C0119103C0143209F448C0052FCA
:103690000A9582F255277727992788270F9307C025
:1036A0000F9366FA1EF437DF319601C01191103383
:1036B00010F11A3300F51053412F8D01000F111F27
:1036C000771F991F000F111F771F991F0A0F1B1FCC
:1036D000781F981F720F931F000F111F771F991FDC
:1036E000040F151F781F981FD801272F392F0F910E
:1036F0000A954AF0D5CF0F91689461F811270027F9
:103700003327222708958D0162FA46F401501040B4
:103710002040304020953095109500950895E8940C
:1037200062F85A95D9F3593038F766FA1EF4F3DE89
:10373000319601C01191113608F010521033E0F2A9
:103740001A3328F01134C0F21734B0F6175F1F7027
:1037500004E0AA0FBB1F221F331F0A95D1F7A12B2C
:103760005A9519F7D0CFB591BB2321F0159132D1DD
:10377000BA95E1F70895CF93DF932697098511272E
:1037800098010F7022952F70B901660F771F660F91
:10379000771FA801461B570B44515040488359835B
:1037A000A901440F551F465250404A835B8344E0B1
:1037B0004C831D83FE0112E080819181A281B3813F
:1037C00099231AF40A961197FBCF81939193CD0117
:1037D0001A9519F0A281B381F3CF81939083288544
:1037E0003F814E8153E080E0FE01DE011A9603D056
:1037F000DF91CF910895AF93BF931D910D916C917F
:10380000DF016A930A931A93882319F0222309F09F
:103810002A95652F752F770F7A950027A70FB01F70
:103820001E91112319F411976A95D1F7662311F4AB
:10383000119663951296332321F4222309F040C098
:1038400051C0222309F02A950027DF01351780F4A3
:10385000732F770FA70FB01F1EE21E93361710F0BD
:10386000632F6395762F770FDF01A70FB01F28C056
:10387000A70FB01F1196732F7E5F271720F0022F1E
:10388000071B039501C00027202F002321F0142FD0
:10389000A1D00A95FACF732F751B652F270F8823A8
:1038A00021F0182F97D0882723952E5F10E392D010
:1038B0001EE290D010E37723A9F08CD07A95FBCF4D
:1038C000621710F022270EC0261B022F75FA36F45D
:1038D00068A1601708F4061B601B68A3142F7AD038
:1038E0000A95E1F775FA1EF468A1662369F088234A
:1038F00011F0182F6FD01E91112309F06BD01E917B
:10390000106368D06A95B9F774FA2EF418A11123E0
:1039100011F01EE25FD0BF91AF9118811D93198104
:103920001D931A811D930895CF93DF932A97AD8538
:10393000BE85882765FA3EF4BB232AF48DE2A150A8
:10394000B040A095B0958F938B2F82958F7080514A
:10395000382F380F8E51282F8E5C082F8B2F8F70A9
:10396000280F280F080F8751182F180F180F8A2FAC
:1039700082958F70180F080F111F001F00958894F3
:10398000001F8A2F8F70080F331F87E0482F8AE0AF
:10399000080F1A95E8F7180F2A95E8F7280F3A95B7
:1039A000E8F7380F4A95E8F7DE01FF27E0E195E0F8
:1039B00070E081918D937D939A95D9F72C853B8505
:1039C0004A8555E08F91FE01DE011F9614DFDF91DD
:1039D000CF910895EF93FF9363FAD6F01F93E98197
:1039E000FA811881112331F41F91689461F8FF91D5
:1039F000EF9108951A9518831F9166FA16F01193A6
:103A000002C073DD3196FA83E983FF91EF91089547
:103A1000E881F9811F930F932F933F93AF93BF9347
:103A20006F937F934F935F938F939F9309959F918C
:103A30008F915F914F917F916F91BF91AF913F9126
:103A40002F910F911F91FF91EF910895109F102DCD
:103A5000012D0895332729E0111F2A9511F4032F12
:103A60000895331F301B18F4300F8894F5CF089455
:103A7000F3CF9801442765FA86F4BD013702F001BF
:103A8000269F80013603F40B100DE11DF41F720315
:103A9000F40B100DE11DF41F08953B9FF0012A9FC8
:103AA00080013A9F100DE11DF41F2B9F100DE11DA9
:103AB000F41F0895552765FA96F45B2F432F4B2783
:103AC000E89447FF65F837FF04C0219509F43A955B
:103AD0003095B7FF04C0A19509F4BA95B095EE27CB
:103AE000FF1B11E1AA1FBB1F1A9541F48D0165FA56
:103AF00026F4019509F41A9510950895EE1FFF1FFD
:103B0000E21BF30B20F4E20FF31F8894EBCF089431
:103B1000E9CF112765FAD6F4172F8F2F8727E8945E
:103B200087FF65F8F7FF08C0A095B095E095F09580
:103B3000AF5FBF4FEF4FFF4F77FF08C040955095E5
:103B4000609570954F5F5F4F6F4F7F4F1F93882732
:103B500099270024112411E2441F551F661F771F67
:103B60001A9571F48A019B0165FA46F401501040E0
:103B70002040304020953095109500955F91089534
:103B8000881F991F001C111C8A1B9B0B0E0A1F0A01
:103B900030F48A0F9B1F0E1E1F1E8894DDCF0894E1
:103BA000DBCFF89401931193A82D112341F4002346
:103BB00031F4B095AB238A2E67FC78940895AB2B33
:103BC0008A2E67FC78940895EA81FB81008129811F
:103BD000021718F01FEF088102C003951127008318
:103BE0000895EA81FB8100812981201718F01FEFD9
:103BF000088102C00A951127008308951A8129813E
:103C0000121728F02881211710F01FEF08951127AF
:103C10000895012F0F70105110F0065FFCCF102F88
:103C2000089500271A5010F0005FFCCF165F100FA8
:103C3000089533272227085E134010F0305FFBCF32
:103C400008511C4F0456104010F03F5FFBCF0C5939
:103C50001F4F0A5010F0205FFCCF065F200F890134
:103C600008951770E4EBFCE30024E10FF01DC89504
:103C70001C9110291C9308951F70183010F0119694
:103C80001850E4EBFCE30024E10FF01DC8951C91F3
:103C900010291C9308951770E4EBFCE30024E10F56
:103CA000F01DC89511270C91202F002101131FEF43
:103CB00008951895010204081020408013485833D5
:103CC0002054696D6520456E67696E6520312E331D
:103CD0000B5365742076616C7565733A1554696D84
:103CE000653A20202020742048483A4D4D3A5353DD
:103CF000202815446174653A202020206420444423
:103D00002E4D4D2E5959202809416C61726D3A2073
:103D100020200B2048483A4D4D202020205B0E5794
:103D200065656B6461793A20772058202804292042
:103D30002D200E54656D704661633A206620582030
:103D4000280E54656D704F66733A206F20582028F6
:103D50000E446179436E74723A2072205820280E06
:103D60004D6F64653A202020206D2058202809548A
:103D7000696D65206F6E6C790F54696D652F4461B4
:103D8000746520616C74726E1354696D652F4461A3
:103D900079436F756E7420616C74726E1654696D20
:103DA000652F446174652F446179436E7420616CA2
:103DB00074726E0E53657269616C20446973706C25
:103DC00061790944617973204C6566740E456E61B2
:103DD000626C65733A206520582028095769706520
:103DE000416E696D200954696D65416E696D200AE7
:103DF000436C6F636B5469636B20046E6F6E651365
:103E0000536E6F6F7A652054696D653A2020732078
:103E10005820280B29202D204D696E757465731369
:103E2000416C61726D204C656E6774683A20622047
:103E30005820280B29202D205365636F6E64731959
:103E4000436F7272656374696F6E2070657220646F
:103E500061793A2063205820280100010100010106
:103E6000000101000000000000620261430343639F
:103E70000263430000000000003F065B4F666D7D5B
:103E8000077F6F777C585E797154044C4C1C5858EE
:103E9000445C5C00000000000008000808000808FE
:103EA0000808080000000000000304000102065397
:103EB000756E646179000000064D6F6E6461790073
:103EC00000000754756573646179000009576564E3
:103ED0006E65736461790854687572736461790002
:103EE0000646726964617900000008536174757256
:103EF000646179001F1C1F1E1F1E1F1F1E1F1E1F17
:103F00000800000000080000000008000000000891
:103F10000000000400000002000000010000010099
:103F2000000100000100000020000000100000005F
:100000000C9436170C94591E0C94591E0C94591EBE
:100010000C94591E0C94591E0C94591E0C94591E84
:100020000C94591E0C94591E0C94591E0C94591E74
:100030000C94591E0C94591E0C94591E0C94591E64
:100040000C948B170C94591E0C948C180C94551806
:00000001FF
